{
  "_format": "hh-sol-artifact-1",
  "contractName": "CommunityPool",
  "sourceName": "contracts/CommunityPool.sol",
  "abi": [
    {
      "inputs": [],
      "stateMutability": "nonpayable",
      "type": "constructor"
    },
    {
      "anonymous": false,
      "inputs": [
        {
          "indexed": true,
          "internalType": "address",
          "name": "previousOwner",
          "type": "address"
        },
        {
          "indexed": true,
          "internalType": "address",
          "name": "newOwner",
          "type": "address"
        }
      ],
      "name": "OwnershipTransferred",
      "type": "event"
    },
    {
      "inputs": [],
      "name": "admin",
      "outputs": [
        {
          "internalType": "address",
          "name": "",
          "type": "address"
        }
      ],
      "stateMutability": "view",
      "type": "function"
    },
    {
      "inputs": [
        {
          "internalType": "address",
          "name": "_token",
          "type": "address"
        },
        {
          "internalType": "uint256",
          "name": "_amount",
          "type": "uint256"
        }
      ],
      "name": "contribute",
      "outputs": [],
      "stateMutability": "nonpayable",
      "type": "function"
    },
    {
      "inputs": [
        {
          "internalType": "address",
          "name": "",
          "type": "address"
        },
        {
          "internalType": "address",
          "name": "",
          "type": "address"
        }
      ],
      "name": "contributions",
      "outputs": [
        {
          "internalType": "uint256",
          "name": "",
          "type": "uint256"
        }
      ],
      "stateMutability": "view",
      "type": "function"
    },
    {
      "inputs": [
        {
          "internalType": "uint256",
          "name": "",
          "type": "uint256"
        }
      ],
      "name": "contributors",
      "outputs": [
        {
          "internalType": "address",
          "name": "",
          "type": "address"
        }
      ],
      "stateMutability": "view",
      "type": "function"
    },
    {
      "inputs": [
        {
          "internalType": "address",
          "name": "_token",
          "type": "address"
        },
        {
          "internalType": "address",
          "name": "_beneficiary",
          "type": "address"
        },
        {
          "internalType": "uint256",
          "name": "_amount",
          "type": "uint256"
        }
      ],
      "name": "distribute",
      "outputs": [],
      "stateMutability": "nonpayable",
      "type": "function"
    },
    {
      "inputs": [],
      "name": "getLendingPool",
      "outputs": [
        {
          "internalType": "contract ILendingPool",
          "name": "",
          "type": "address"
        }
      ],
      "stateMutability": "nonpayable",
      "type": "function"
    },
    {
      "inputs": [],
      "name": "lendingPool",
      "outputs": [
        {
          "internalType": "contract ILendingPool",
          "name": "",
          "type": "address"
        }
      ],
      "stateMutability": "view",
      "type": "function"
    },
    {
      "inputs": [],
      "name": "owner",
      "outputs": [
        {
          "internalType": "address",
          "name": "",
          "type": "address"
        }
      ],
      "stateMutability": "view",
      "type": "function"
    },
    {
      "inputs": [],
      "name": "poolAddress",
      "outputs": [
        {
          "internalType": "address",
          "name": "",
          "type": "address"
        }
      ],
      "stateMutability": "view",
      "type": "function"
    },
    {
      "inputs": [
        {
          "internalType": "address",
          "name": "_token",
          "type": "address"
        },
        {
          "internalType": "uint256",
          "name": "_amount",
          "type": "uint256"
        }
      ],
      "name": "poolDeposit",
      "outputs": [],
      "stateMutability": "nonpayable",
      "type": "function"
    },
    {
      "inputs": [],
      "name": "poolProvider",
      "outputs": [
        {
          "internalType": "contract ILendingPoolAddressesProvider",
          "name": "",
          "type": "address"
        }
      ],
      "stateMutability": "view",
      "type": "function"
    },
    {
      "inputs": [
        {
          "internalType": "address",
          "name": "_token",
          "type": "address"
        },
        {
          "internalType": "uint256",
          "name": "_amount",
          "type": "uint256"
        }
      ],
      "name": "poolRefund",
      "outputs": [],
      "stateMutability": "nonpayable",
      "type": "function"
    },
    {
      "inputs": [
        {
          "internalType": "uint256",
          "name": "",
          "type": "uint256"
        }
      ],
      "name": "poolTokens",
      "outputs": [
        {
          "internalType": "address",
          "name": "",
          "type": "address"
        }
      ],
      "stateMutability": "view",
      "type": "function"
    },
    {
      "inputs": [],
      "name": "renounceOwnership",
      "outputs": [],
      "stateMutability": "nonpayable",
      "type": "function"
    },
    {
      "inputs": [
        {
          "internalType": "address",
          "name": "_poolProvider",
          "type": "address"
        }
      ],
      "name": "setPoolProvider",
      "outputs": [],
      "stateMutability": "nonpayable",
      "type": "function"
    },
    {
      "inputs": [
        {
          "internalType": "address",
          "name": "_token",
          "type": "address"
        }
      ],
      "name": "setPoolTokens",
      "outputs": [],
      "stateMutability": "nonpayable",
      "type": "function"
    },
    {
      "inputs": [
        {
          "internalType": "address",
          "name": "",
          "type": "address"
        }
      ],
      "name": "tokenIsAccepted",
      "outputs": [
        {
          "internalType": "bool",
          "name": "",
          "type": "bool"
        }
      ],
      "stateMutability": "view",
      "type": "function"
    },
    {
      "inputs": [
        {
          "internalType": "address",
          "name": "newOwner",
          "type": "address"
        }
      ],
      "name": "transferOwnership",
      "outputs": [],
      "stateMutability": "nonpayable",
      "type": "function"
    }
  ],
  "bytecode": "0x608060405234801561001057600080fd5b5061002d61002261007360201b60201c565b61007b60201b60201c565b33600160006101000a81548173ffffffffffffffffffffffffffffffffffffffff021916908373ffffffffffffffffffffffffffffffffffffffff16021790555061013f565b600033905090565b60008060009054906101000a900473ffffffffffffffffffffffffffffffffffffffff169050816000806101000a81548173ffffffffffffffffffffffffffffffffffffffff021916908373ffffffffffffffffffffffffffffffffffffffff1602179055508173ffffffffffffffffffffffffffffffffffffffff168173ffffffffffffffffffffffffffffffffffffffff167f8be0079c531659141344cd1fd0a4f28419497f9722a3daafe3b4186f6b6457e060405160405180910390a35050565b611b3c8061014e6000396000f3fe608060405234801561001057600080fd5b50600436106101165760003560e01c80638598f9c3116100a2578063a59a997311610071578063a59a9973146102b9578063dced1a5a146102d7578063f2fde38b14610307578063f4b34cc914610323578063f851a4401461033f57610116565b80638598f9c3146102455780638da5cb5b14610263578063a16a918314610281578063a4aa8ebb1461029d57610116565b80633cb5d100116100e95780633cb5d100146101b757806366e6f56c146101e7578063715018a61461020357806377ba79501461020d5780638418cd991461022957610116565b80630261bf8b1461011b5780631059a845146101395780631755ff211461016957806329369ccf14610187575b600080fd5b61012361035d565b60405161013091906112a1565b60405180910390f35b610153600480360381019061014e91906112ff565b610458565b6040516101609190611347565b60405180910390f35b610171610478565b60405161017e9190611371565b60405180910390f35b6101a1600480360381019061019c919061138c565b61049e565b6040516101ae91906113e5565b60405180910390f35b6101d160048036038101906101cc919061142c565b6104c3565b6040516101de9190611371565b60405180910390f35b61020160048036038101906101fc91906112ff565b610502565b005b61020b6105c8565b005b61022760048036038101906102229190611459565b6105dc565b005b610243600480360381019061023e9190611459565b6109e6565b005b61024d610ba4565b60405161025a91906114ba565b60405180910390f35b61026b610bca565b6040516102789190611371565b60405180910390f35b61029b600480360381019061029691906114d5565b610bf3565b005b6102b760048036038101906102b291906112ff565b610c7f565b005b6102c1610ccb565b6040516102ce91906112a1565b60405180910390f35b6102f160048036038101906102ec919061142c565b610cf1565b6040516102fe9190611371565b60405180910390f35b610321600480360381019061031c91906112ff565b610d30565b005b61033d60048036038101906103389190611459565b610db4565b005b610347610ff0565b6040516103549190611371565b60405180910390f35b6000600860009054906101000a900473ffffffffffffffffffffffffffffffffffffffff1673ffffffffffffffffffffffffffffffffffffffff16630261bf8b6040518163ffffffff1660e01b8152600401602060405180830381865afa1580156103cc573d6000803e3d6000fd5b505050506040513d601f19601f820116820180604052508101906103f0919061153d565b600660006101000a81548173ffffffffffffffffffffffffffffffffffffffff021916908373ffffffffffffffffffffffffffffffffffffffff160217905550600660009054906101000a900473ffffffffffffffffffffffffffffffffffffffff16905090565b60046020528060005260406000206000915054906101000a900460ff1681565b600660009054906101000a900473ffffffffffffffffffffffffffffffffffffffff1681565b6005602052816000526040600020602052806000526040600020600091509150505481565b600281815481106104d357600080fd5b906000526020600020016000915054906101000a900473ffffffffffffffffffffffffffffffffffffffff1681565b61050a611016565b6001600460008373ffffffffffffffffffffffffffffffffffffffff1673ffffffffffffffffffffffffffffffffffffffff16815260200190815260200160002060006101000a81548160ff0219169083151502179055506003819080600181540180825580915050600190039060005260206000200160009091909190916101000a81548173ffffffffffffffffffffffffffffffffffffffff021916908373ffffffffffffffffffffffffffffffffffffffff16021790555050565b6105d0611016565b6105da6000611094565b565b6000811161061f576040517f08c379a0000000000000000000000000000000000000000000000000000000008152600401610616906115c7565b60405180910390fd5b61065d6040518060400160405280600e81526020017f5245515549524520504153534544000000000000000000000000000000000000815250611158565b600460008373ffffffffffffffffffffffffffffffffffffffff1673ffffffffffffffffffffffffffffffffffffffff16815260200190815260200160002060009054906101000a900460ff16156109e2576106ed6040518060400160405280600781526020017f696e206865726500000000000000000000000000000000000000000000000000815250611158565b8173ffffffffffffffffffffffffffffffffffffffff166323b872dd3330846040518463ffffffff1660e01b815260040161072a939291906115e7565b6020604051808303816000875af1158015610749573d6000803e3d6000fd5b505050506040513d601f19601f8201168201806040525081019061076d919061164a565b506002339080600181540180825580915050600190039060005260206000200160009091909190916101000a81548173ffffffffffffffffffffffffffffffffffffffff021916908373ffffffffffffffffffffffffffffffffffffffff16021790555080600560008473ffffffffffffffffffffffffffffffffffffffff1673ffffffffffffffffffffffffffffffffffffffff16815260200190815260200160002060003373ffffffffffffffffffffffffffffffffffffffff1673ffffffffffffffffffffffffffffffffffffffff168152602001908152602001600020600082825461085d91906116a6565b9250508190555061086c61035d565b600760006101000a81548173ffffffffffffffffffffffffffffffffffffffff021916908373ffffffffffffffffffffffffffffffffffffffff1602179055508173ffffffffffffffffffffffffffffffffffffffff1663095ea7b3600760009054906101000a900473ffffffffffffffffffffffffffffffffffffffff16836040518363ffffffff1660e01b81526004016109099291906116fc565b6020604051808303816000875af1158015610928573d6000803e3d6000fd5b505050506040513d601f19601f8201168201806040525081019061094c919061164a565b50600760009054906101000a900473ffffffffffffffffffffffffffffffffffffffff1673ffffffffffffffffffffffffffffffffffffffff1663e8eda9df83833060006040518563ffffffff1660e01b81526004016109af949392919061176e565b600060405180830381600087803b1580156109c957600080fd5b505af11580156109dd573d6000803e3d6000fd5b505050505b5050565b60008111610a29576040517f08c379a0000000000000000000000000000000000000000000000000000000008152600401610a20906115c7565b60405180910390fd5b8173ffffffffffffffffffffffffffffffffffffffff166323b872dd3330846040518463ffffffff1660e01b8152600401610a66939291906115e7565b6020604051808303816000875af1158015610a85573d6000803e3d6000fd5b505050506040513d601f19601f82011682018060405250810190610aa9919061164a565b506002339080600181540180825580915050600190039060005260206000200160009091909190916101000a81548173ffffffffffffffffffffffffffffffffffffffff021916908373ffffffffffffffffffffffffffffffffffffffff16021790555080600560008473ffffffffffffffffffffffffffffffffffffffff1673ffffffffffffffffffffffffffffffffffffffff16815260200190815260200160002060003373ffffffffffffffffffffffffffffffffffffffff1673ffffffffffffffffffffffffffffffffffffffff1681526020019081526020016000206000828254610b9991906116a6565b925050819055505050565b600860009054906101000a900473ffffffffffffffffffffffffffffffffffffffff1681565b60008060009054906101000a900473ffffffffffffffffffffffffffffffffffffffff16905090565b610bfb611016565b8273ffffffffffffffffffffffffffffffffffffffff1663a9059cbb83836040518363ffffffff1660e01b8152600401610c369291906116fc565b6020604051808303816000875af1158015610c55573d6000803e3d6000fd5b505050506040513d601f19601f82011682018060405250810190610c79919061164a565b50505050565b610c87611016565b80600860006101000a81548173ffffffffffffffffffffffffffffffffffffffff021916908373ffffffffffffffffffffffffffffffffffffffff16021790555050565b600760009054906101000a900473ffffffffffffffffffffffffffffffffffffffff1681565b60038181548110610d0157600080fd5b906000526020600020016000915054906101000a900473ffffffffffffffffffffffffffffffffffffffff1681565b610d38611016565b600073ffffffffffffffffffffffffffffffffffffffff168173ffffffffffffffffffffffffffffffffffffffff161415610da8576040517f08c379a0000000000000000000000000000000000000000000000000000000008152600401610d9f90611825565b60405180910390fd5b610db181611094565b50565b60008111610df7576040517f08c379a0000000000000000000000000000000000000000000000000000000008152600401610dee90611891565b60405180910390fd5b80600560008473ffffffffffffffffffffffffffffffffffffffff1673ffffffffffffffffffffffffffffffffffffffff16815260200190815260200160002060003373ffffffffffffffffffffffffffffffffffffffff1673ffffffffffffffffffffffffffffffffffffffff168152602001908152602001600020541015610eb6576040517f08c379a0000000000000000000000000000000000000000000000000000000008152600401610ead90611923565b60405180910390fd5b600760009054906101000a900473ffffffffffffffffffffffffffffffffffffffff1673ffffffffffffffffffffffffffffffffffffffff166369328dec8383336040518463ffffffff1660e01b8152600401610f1593929190611943565b6020604051808303816000875af1158015610f34573d6000803e3d6000fd5b505050506040513d601f19601f82011682018060405250810190610f58919061198f565b5080600560008473ffffffffffffffffffffffffffffffffffffffff1673ffffffffffffffffffffffffffffffffffffffff16815260200190815260200160002060003373ffffffffffffffffffffffffffffffffffffffff1673ffffffffffffffffffffffffffffffffffffffff1681526020019081526020016000206000828254610fe591906119bc565b925050819055505050565b600160009054906101000a900473ffffffffffffffffffffffffffffffffffffffff1681565b61101e6111f1565b73ffffffffffffffffffffffffffffffffffffffff1661103c610bca565b73ffffffffffffffffffffffffffffffffffffffff1614611092576040517f08c379a000000000000000000000000000000000000000000000000000000000815260040161108990611a3c565b60405180910390fd5b565b60008060009054906101000a900473ffffffffffffffffffffffffffffffffffffffff169050816000806101000a81548173ffffffffffffffffffffffffffffffffffffffff021916908373ffffffffffffffffffffffffffffffffffffffff1602179055508173ffffffffffffffffffffffffffffffffffffffff168173ffffffffffffffffffffffffffffffffffffffff167f8be0079c531659141344cd1fd0a4f28419497f9722a3daafe3b4186f6b6457e060405160405180910390a35050565b6111ee8160405160240161116c9190611ae4565b6040516020818303038152906040527f41304fac000000000000000000000000000000000000000000000000000000007bffffffffffffffffffffffffffffffffffffffffffffffffffffffff19166020820180517bffffffffffffffffffffffffffffffffffffffffffffffffffffffff83818316178352505050506111f9565b50565b600033905090565b60008151905060006a636f6e736f6c652e6c6f679050602083016000808483855afa5050505050565b600073ffffffffffffffffffffffffffffffffffffffff82169050919050565b6000819050919050565b600061126761126261125d84611222565b611242565b611222565b9050919050565b60006112798261124c565b9050919050565b600061128b8261126e565b9050919050565b61129b81611280565b82525050565b60006020820190506112b66000830184611292565b92915050565b600080fd5b60006112cc82611222565b9050919050565b6112dc816112c1565b81146112e757600080fd5b50565b6000813590506112f9816112d3565b92915050565b600060208284031215611315576113146112bc565b5b6000611323848285016112ea565b91505092915050565b60008115159050919050565b6113418161132c565b82525050565b600060208201905061135c6000830184611338565b92915050565b61136b816112c1565b82525050565b60006020820190506113866000830184611362565b92915050565b600080604083850312156113a3576113a26112bc565b5b60006113b1858286016112ea565b92505060206113c2858286016112ea565b9150509250929050565b6000819050919050565b6113df816113cc565b82525050565b60006020820190506113fa60008301846113d6565b92915050565b611409816113cc565b811461141457600080fd5b50565b60008135905061142681611400565b92915050565b600060208284031215611442576114416112bc565b5b600061145084828501611417565b91505092915050565b600080604083850312156114705761146f6112bc565b5b600061147e858286016112ea565b925050602061148f85828601611417565b9150509250929050565b60006114a48261126e565b9050919050565b6114b481611499565b82525050565b60006020820190506114cf60008301846114ab565b92915050565b6000806000606084860312156114ee576114ed6112bc565b5b60006114fc868287016112ea565b935050602061150d868287016112ea565b925050604061151e86828701611417565b9150509250925092565b600081519050611537816112d3565b92915050565b600060208284031215611553576115526112bc565b5b600061156184828501611528565b91505092915050565b600082825260208201905092915050565b7f596f75206e65656420746f207370656e6420736f6d657468696e672e00000000600082015250565b60006115b1601c8361156a565b91506115bc8261157b565b602082019050919050565b600060208201905081810360008301526115e0816115a4565b9050919050565b60006060820190506115fc6000830186611362565b6116096020830185611362565b61161660408301846113d6565b949350505050565b6116278161132c565b811461163257600080fd5b50565b6000815190506116448161161e565b92915050565b6000602082840312156116605761165f6112bc565b5b600061166e84828501611635565b91505092915050565b7f4e487b7100000000000000000000000000000000000000000000000000000000600052601160045260246000fd5b60006116b1826113cc565b91506116bc836113cc565b9250827fffffffffffffffffffffffffffffffffffffffffffffffffffffffffffffffff038211156116f1576116f0611677565b5b828201905092915050565b60006040820190506117116000830185611362565b61171e60208301846113d6565b9392505050565b6000819050919050565b600061ffff82169050919050565b600061175861175361174e84611725565b611242565b61172f565b9050919050565b6117688161173d565b82525050565b60006080820190506117836000830187611362565b61179060208301866113d6565b61179d6040830185611362565b6117aa606083018461175f565b95945050505050565b7f4f776e61626c653a206e6577206f776e657220697320746865207a65726f206160008201527f6464726573730000000000000000000000000000000000000000000000000000602082015250565b600061180f60268361156a565b915061181a826117b3565b604082019050919050565b6000602082019050818103600083015261183e81611802565b9050919050565b7f596f75206e65656420746f20776974686472617720736f6d657468696e672e00600082015250565b600061187b601f8361156a565b915061188682611845565b602082019050919050565b600060208201905081810360008301526118aa8161186e565b9050919050565b7f596f752063616e6e6f74207769746864726177206d6f7265207468616e20776860008201527f617420796f7520636f6e74726962757465642100000000000000000000000000602082015250565b600061190d60338361156a565b9150611918826118b1565b604082019050919050565b6000602082019050818103600083015261193c81611900565b9050919050565b60006060820190506119586000830186611362565b61196560208301856113d6565b6119726040830184611362565b949350505050565b60008151905061198981611400565b92915050565b6000602082840312156119a5576119a46112bc565b5b60006119b38482850161197a565b91505092915050565b60006119c7826113cc565b91506119d2836113cc565b9250828210156119e5576119e4611677565b5b828203905092915050565b7f4f776e61626c653a2063616c6c6572206973206e6f7420746865206f776e6572600082015250565b6000611a2660208361156a565b9150611a31826119f0565b602082019050919050565b60006020820190508181036000830152611a5581611a19565b9050919050565b600081519050919050565b60005b83811015611a85578082015181840152602081019050611a6a565b83811115611a94576000848401525b50505050565b6000601f19601f8301169050919050565b6000611ab682611a5c565b611ac0818561156a565b9350611ad0818560208601611a67565b611ad981611a9a565b840191505092915050565b60006020820190508181036000830152611afe8184611aab565b90509291505056fea264697066735822122006dce3e2c4db02e704c4c06524e8b0ec14e6006400ae9299b9c7327211c3bab164736f6c634300080c0033",
  "linkReferences": {},
  "deployedLinkReferences": {}
}